:0A0000000C942A000C9400000C94EC
:10000A0000000C9400000C9400000C9400000C9466
:10001A0000000C9400000C9400000C9400000C9456
:10002A0000000C9400000C9400000C9400000C9446
:10003A0000000C9400000C9400000C9400000C9436
:10004A0000000C9400000C940000F894EE27ECBB1E
:10005A00F1E0FBBFEBBFE5BF8DE0A2E0BB27ED936C
:10006A008A95E9F780E098E0A0E6ED930197E9F731
:10007A00EFE5EDBFE8E0EEBFC0E6D2E00C94EC009D
:10008A00DCD015E500E030E0AD98AE98D89ADE9A5B
:10009A005524E2E05E1618F5012F4424E8E04E16D6
:1000AA0078F4E02FF0E0A1E0B0E0DED03E2F30306F
:1000BA0011F4A89801C0A89A06959DD04394EECF52
:1000CA0000E04424E8E04E1620F49AD094D04394F9
:1000DA00F9CF101709F4A1D0A6D05394DACFA8EE1D
:1000EA00B3E0CCD05524E2E05E1608F05CC0DE989E
:1000FA00E12FE078F0E0B1D0AED0E03011F4A99869
:10010A0001C0A99AE12FE074F0E0A9D0A4D0E030B0
:10011A0011F4AA9801C0AA9AE12FE072F0E0F595CD
:10012A00E79599D0E03011F4AB9801C0AB9AE12F72
:10013A00E071F0E090D0E03011F4AC9801C0AC9AD4
:10014A00E12FE870F0E089D0E03011F4D99801C0CD
:10015A00D99AE12FE470F0E082D0E03011F4DA9815
:10016A0001C0DA9AE12FE278F0E0F595E795E03000
:10017A0011F4DB9801C0DB9A10FD02C0DD9801C0C2
:10018A00DD9AAE9AAE98DE9A00E04424E8E04E1674
:10019A0020F436D04DD04394F9CF101709F43DD04E
:1001AA0042D05394A0CFD898A8EEB3E067D0D89A9B
:1001BA0000E04424E8E04E1620F422D039D04394DB
:1001CA00F9CF003009F429D03DD024960895EFE6FE
:1001DA00EABBE0E0EBBBE7BBE8BBEFE7E4BBE0E090
:1001EA00E5BBE0E8E1BBE0E0E2BB4ADFA8EEB3E052
:1001FA0045D0FBCFFFCFAE9AAE98A8ECB0E03EC098
:10020A00E02FE6950E2EA0E0CC99A1E0EA2FE79523
:10021A00E0E0E795E0290E2F0895979AA4EFB1E060
:10022A002DD097980895EFEF1E27A8ECB0E026C0CE
:10023A00AE9AAE98A4EFB1E021C03A932A931A93EA
:10024A000A9308953B812A81198108810895F195BD
:10025A00E195F0400895F595E795F595E795F595BB
:10026A00E795F595E7950895E894F7FF02C0EFDF63
:10027A006894EA23FB230EF4EADF0895109639F016
:10028A00A89580ED97E00197F1F71197C9F70895BE
:00000001FF
