:060000000C942F000C948B
:1000060000000C9400000C9400000C9400000C946A
:1000160000000C9400000C9400000C9400000C945A
:1000260000000C9400000C9400000C9400000C944A
:1000360000000C9400000C9400000C9400000C943A
:1000460000000C9400000C9400000C9400000000CA
:100056000100070054000000F894EE27ECBBF1E025
:10006600FBBFEBBFE5BF8DE0A2E0BB27ED938A9512
:10007600E9F780E098E0A0E6ED930197E9F7E6E579
:10008600F0E085919591009761F0A591B591059065
:100096001590BF01F00105900D920197E1F7FB0164
:1000A600F0CFEFE5EDBFE8E0EEBFC0E6D2E00C949E
:1000B600E300A4D015E500E030E0E0E0E0BB97986F
:1000C600D898A89AA99AD99A5524E2E05E1608F01B
:1000D6006EC0012F4424E8E04E16A8F4E02FAFEFDF
:1000E600EA27F0E0A1E0B0E097D03E2F303011F4DF
:1000F600A89801C0A89A0695D89AD898A4EFB1E016
:1001060095D04394E8CFA0E0CD99A1E0EA2FE795FA
:10011600E0E0E7950E2EA0E0CC99A1E0EA2FE2956B
:10012600E07FEE0FEE0F0E2AA0E0CB99A1E0EA2FBA
:10013600E295E07FEE0F0E2AA0E0CA99A1E0EA2F31
:10014600E295E07F0E2AA0E09D99A1E0EA2FEE0F4E
:10015600EE0FEE0F0E2AA0E09C99A1E0EA2FEE0F1B
:10016600EE0F0E2AA0E09B99A1E0EA2FEE0FE02900
:10017600AE2FE0E09A99E1E0EA2B3E2F131741F407
:1001860030BB7394979AA8EEB3E050D0979806C008
:1001960030BBA8EEB3E04AD0E0E0E0BBEFEF1E27AD
:1001A600E0E0E2BBA0EDB7E041D053948ECFA4EFE0
:1001B600B1E03CD0D998D99AE0E025D024960895AC
:1001C600979A17D0E3E0EABBE0E0EBBBE3E0E4BBE1
:1001D600E0E0E5BBE0E8E1BBE0E0E2BB6ADFE3E0EC
:1001E600E71509F406D0A0EDB7E020D07724F6CFC6
:1001F600FFCFA4EFB1E01AD0979808953A932A93C7
:100206001A930A9308953B812A81198108810895DA
:10021600F195E195F0400895E894F7FF02C0F8DF04
:100226006894EA23FB230EF4F3DF0895109639F061
:10023600A89580ED97E00197F1F71197C9F7089512
:00000001FF
