:060000000C942A000C9490
:1000060000000C9400000C9400000C9400000C946A
:1000160000000C9400000C9400000C9400000C945A
:1000260000000C9400000C9400000C9400000C944A
:1000360000000C9400000C9400000C9400000C943A
:1000460000000C9400000C9400000C940000F8943E
:10005600EE27ECBBF1E0FBBFEBBFE5BF8DE0A2E016
:10006600BB27ED938A95E9F780E098E0A0E6ED934B
:100076000197E9F7EFE5EDBFE8E0EEBFC0E6D2E0B5
:100086000C94C9001A930A9315E100E0D898A89A2F
:100096005524E2E05E1608F076C08DD00E2F0030B3
:1000A60011F4DD9801C0DD9A8DD00E2F003011F4C9
:1000B600DC9801C0DC9A8BD00E2F003011F4DA9850
:1000C60001C0DA9A89D00E2F003011F4AD9801C024
:1000D600AD9A87D00E2F003011F4AB9801C0AB9AC1
:1000E600E12FE1700E2F003011F4AA9801C0AA9AF0
:1000F600D89AD898A4E6B0E089D0DD98DC98DA984A
:10010600AD98AB98AA98A0E0CE99A1E054D0B0E003
:10011600EA17FB0761F5A0E0CB99A1E053D0B0E068
:10012600EA17FB0721F5A0E0C999A1E050D0B0E09D
:10013600EA17FB07E1F4A0E09E99A1E04DD0B0E0FC
:10014600EA17FB07A1F4A0E09C99A1E04AD0B0E031
:10015600EA17FB0761F4A0E09999A1E0E12FE170AD
:10016600B0E0A7FDBFEFF0E0EA17FB0709F004C017
:100176003ED0A4E6B0E04AD0EFE31E27A4E6B0E006
:1001860045D0539486CF09911991089530D0E5E36F
:10019600EABBE0E0EBBBE7BBE8BBEDE2E4BBE0E0DB
:1001A600E5BBE0E8E1BBE0E0E2BB6CDFA8EEB3E074
:1001B6002DD0FBCFFFCFE12FE072F0E0F595E7956C
:1001C6001CD00895E12FE071F0E017D00895E12FDB
:1001D600E870F0E014D00895E12FE470F0E011D05B
:1001E6000895E12FE270F0E0F595E7950895979A66
:1001F600A4E6B0E00BD097980895F595E795F595A8
:10020600E795F595E795F595E7950895109639F0F4
:10021600A89580ED97E00197F1F71197C9F7089532
:00000001FF
