:020000000C945E
:100002002A000C9400000C9400000C9400000C9444
:1000120000000C9400000C9400000C9400000C945E
:1000220000000C9400000C9400000C9400000C944E
:1000320000000C9400000C9400000C9400000C943E
:1000420000000C9400000C9400000C9400000C942E
:100052000000F894EE27ECBBF1E0FBBFEBBFE5BF7D
:100062008DE0A2E0BB27ED938A95E9F780E098E066
:10007200A0E6ED930197E9F7EFE5EDBFE8E0EEBF0B
:10008200C0E6D2E00C94BE001A930A9315E000E099
:10009200D898A89A5524E2E05E1608F06BC086D084
:1000A2000E2F003011F4DC9801C0DC9A84D00E2FA0
:1000B200003011F4DB9801C0DB9A82D00E2F0030A1
:1000C20011F4AC9801C0AC9AE12FE1700E2F003010
:1000D20011F4AB9801C0AB9AD89AD898A8EEB3E0C5
:1000E2008DD0DC98DB98AC98AB98A0E0CE99A1E0DB
:1000F2005DD0B0E0EA17FB07A9F4A0E0C999A1E03E
:100102005AD0B0E0EA17FB0769F4A0E09E99A1E09B
:1001120057D0B0E0EA17FB0729F4A0E09999A1E0D3
:1001220055D009F001C05BD0A0E0CD9BA1E03ED04C
:10013200B0E0EA17FB07A9F4A0E0CA9BA1E03BD01C
:10014200B0E0EA17FB0769F4A0E09D9BA1E038D07C
:10015200B0E0EA17FB0729F4A0E09A9BA1E036D0B1
:1001620009F001C03CD0EFE01E27A8EEB3E046D074
:10017200539491CF099119910895979AA4EFB1E000
:100182003DD09798E9E1EABBE0E0EBBBE7BBE8BB17
:10019200E9E1E4BBE0E0E5BBE0E8E1BBE0E0E2BBD3
:1001A20073DFA8EEB3E02AD0FBCFFFCFE12FE870D8
:1001B200F0E01DD00895E12FE470F0E01AD0089528
:1001C200E12FE270F0E0F595E7950895E12FE170F7
:1001D200B0E0A7FDBFEFF0E0EA17FB070895979A9A
:1001E200A4EFB1E00BD09798A4EFB1E007C0F5956A
:1001F200E795F595E795F595E7950895109639F009
:10020200A89580ED97E00197F1F71197C9F7089546
:00000001FF
