:100000000C942A000C9400000C9400000C94000046
:100010000C9400000C9400000C9400000C94000060
:100020000C9400000C9400000C9400000C94000050
:100030000C9400000C9400000C9400000C94000040
:100040000C9400000C9400000C9400000C94000030
:100050000C940000F894EE27ECBBF1E0FBBFEBBF83
:10006000E5BF8DE0A2E0BB27ED938A95E9F780E03C
:1000700098E0A0E6ED930197E9F7EFE5EDBFE8E042
:10008000EEBFC0E6D2E00C94E6001A930A9315E0A6
:1000900000E0AE98DE98A89AA99AD89AD99A5524E1
:1000A000E2E05E1608F05BC0D898D998A8D00E2F71
:1000B000003011F4DA9801C0DA9AA6D00E2F003081
:1000C00011F4DB9801C0DB9AA4D00E2F003011F49C
:1000D000DC9801C0DC9AE12FE1700E2F003011F4A2
:1000E000DD9801C0DD9AAE9AAE98A4E6B0E0A6D045
:1000F000DA98DB98DC98DD98D89AD99AA898A998CC
:10010000A0E09D99A1E07BD0B0E0EA17FB07E1F405
:10011000A0E09C99A1E078D0B0E0EA17FB07A1F439
:10012000A0E09B99A1E075D0B0E0EA17FB0761F46D
:10013000A0E09A99A1E0E12FE170B0E0A7FDBFEF48
:10014000F0E0EA17FB0709F001C069D0A89AA99A64
:10015000EFE01E27A4E6B0E071D05394A1CFDE9A61
:10016000DE98A898A9989D9906C09C9904C09B996F
:1001700002C09A9B01C001C052D0A89AA99AA29A23
:10018000A39AA49AA59AAA98AB98AC98AD989D9971
:1001900006C09C9904C09B9902C09A9B01C001C0F3
:1001A0003ED0AA9AAB9AAC9AAD9A9D9B06C09C9BF6
:1001B00004C09B9B02C09A9901C001C030D0A29894
:1001C000A398A498D098099119910895979AA4E6B4
:1001D000B0E034D09798EFE7EABBE0E0EBBBE7BBD9
:1001E000E8BBE3E4E4BBE0E0E5BBE0E8E1BBE0E082
:1001F000E2BB4BDFA4E6B0E021D0FBCFFFCFE12F85
:10020000E870F0E014D00895E12FE470F0E011D030
:100210000895E12FE270F0E0F595E7950895979A3B
:10022000A4E6B0E00BD09798A4E6B0E007C0F5953F
:10023000E795F595E795F595E7950895109639F0CA
:10024000A89580ED97E00197F1F71197C9F7089508
:00000001FF
