:060000000C947D000C943D
:1000060000000C9400000C9400000C9400000C946A
:1000160000000C9400000C9400000C9400000C945A
:1000260000000C9400000C9400000C9400000C944A
:1000360000000C9400000C9400000C9400000C943A
:1000460000000C9400000C9400000C940000102793
:10005600E80364000A00010000100001100001001E
:100066000000600266026C02720278027E02AA003A
:100076005601D4016502FC0274033734313634006C
:100086003734313635003734313636003734313788
:10009600330037343137340037343137350049438C
:1000A60020257320697320666F756E64004E6F207D
:1000B600494320697320666F756E6400020006006E
:1000C60066000600600280000600660286000600E2
:1000D6006C028C00060072029200060078029800FC
:1000E60006007E029E000C00840268000C0090024E
:1000F60074000000F894EE27ECBBF1E0FBBFEBBF09
:10010600E5BF8DE0A2E0BB27ED938A95E9F780E095
:1001160098E0A0E6ED930197E9F7E2ECF0E085912F
:100126009591009761F0A591B59105901590BF0145
:10013600F00105900D920197E1F7FB01F0CFEFE595
:10014600EDBFE8E0EEBFC0E6D2E00C94EB030AD5C3
:10015600E3E0EABBE0E0EBBB0AD5E0E0E0BBD89821
:10016600A89AA99AD99A5524E2E05E1608F060C0CA
:10017600012F4424E8E04E1690F4E02FAFEFEA2773
:1001860000D53E2F303011F4A89801C0A89A0695E4
:10019600D89AD898A4EFB1E009D64394EBCFA0E063
:1001A600CD99A1E0F3D4F7D4EA2FE295E07FEE0FE4
:1001B600EE0F0E2AA0E0CB99A1E0EA2FE295E07FB0
:1001C600EE0F0E2AA0E0CA99A1E0EA2FE295E07FA1
:1001D6000E2AA0E09D99A1E0EA2FEE0FEE0FEE0F9A
:1001E6000E2AA0E09C99A1E0EA2FEE0FEE0F0E2A50
:1001F600A0E09B99A1E0EA2FEE0FE029AE2FE0E008
:100206009A99E1E0EA2B3E2F131719F430BB739449
:1002160006C030BBA8EEB3E0C9D5E0E0E0BBEFEF27
:100226001E27E0E0E2BBA0EDB7E0C0D553949CCF1B
:10023600A4EFB1E0BBD5D998D99AA0E0CD99A1E0B9
:10024600E5E0EA9F202DA0E0CC99A1E0E4E0EA9F5A
:10025600F0012E0FA0E0CB99A1E0E7E0EA9FF001C4
:100266002E0FA0E0CA99A1E0E6E09AD4A0E09D99FD
:10027600A1E0EA2F0E0EA0E09C99A1E0E0E0E00DDF
:100286002E2FA0E09B99A1E0E3E08AD4A0E09A9902
:10029600A1E0EA2FE00D09F47394E3E0E71511F409
:1002A600E1E00DC10BC15ED420E0EEE77ED4EFE3C2
:1002B60082D4A998DE98A89A5524E2E05E1620F525
:1002C600012F4424E8E04E1660F4E02F5AD42E2F76
:1002D600203011F4D99801C0D99A069575D4439463
:1002E600F1CF00E030E04424E8E04E1638F471D453
:1002F60077D4E0293E2F68D44394F6CF7AD409F018
:10030600739486D45394D9CFA4EFB1E04FD5552436
:10031600E2E05E1608F03FC0A8987FD411F4DA98A0
:1003260001C0DA9A81D411F4DB9801C0DB9A83D438
:1003360011F4DC9801C0DC9A86D411F4DD9801C072
:10034600DD9A87D411F4AA9801C0AA9A88D411F428
:10035600AB9801C0AB9A89D411F4AC9801C0AC9AA1
:1003660010FD02C0AD9801C0AD9AA99AA998A89AA5
:1003760000E030E04424E8E04E1638F42AD430D4C5
:10038600E0293E2F21D44394F6CF33D409F0739459
:100396003FD45394BDCFE4E0E71511F4E1E08FC0FC
:1003A6008DC0E0D3EFE601D4EFE705D4AD98AE9863
:1003B600D89ADE9A5524E2E05E1628F5012F4424E9
:1003C600E8E04E1660F4E02FDCD33E2F303011F417
:1003D600A89801C0A89A06954FD44394F1CF00E09F
:1003E6004424E8E04E1648F4E02FE695D4D3CED365
:1003F600E0290E2F41D44394F4CF101709F47394D7
:1004060007D45394D8CFA8EEB3E0D0D45524E2E075
:100416005E16F0F5DE9801D411F4A99801C0A99AE8
:1004260003D411F4AA9801C0AA9A05D411F4AB9882
:1004360001C0AB9A08D411F4AC9801C0AC9A09D4A7
:1004460011F4D99801C0D99A0AD411F4DA9801C0E6
:10045600DA9A0BD411F4DB9801C0DB9A10FD02C0C6
:10046600DD9801C0DD9AAE9AAE98DE9A00E044248B
:10047600E8E04E1638F4E02FE6958DD387D301D405
:100486004394F6CF101709F47394C2D35394BFCF95
:10049600FFD3D89A00E04424E8E04E1638F4E02F63
:1004A600E69579D373D3EDD34394F6CF003009F4B0
:1004B6007394E5E0E71511F4E1E001C0E0E051D402
:1004C60024960895E9D3EFE770D351D3AE98DE981A
:1004D600A89AA99AD89AD99A5524E2E05E1608F005
:1004E6004EC0D898D998DDD30E2F003011F4DA9883
:1004F60001C0DA9ADBD30E2F003011F4DB9801C06D
:10050600DB9AD9D30E2F003011F4DC9801C0DC9AA7
:10051600D8D311F4DD9801C0DD9AAE9AAE98A4E660
:10052600B0E044D4DA98DB98DC98DD98D89AD99A6A
:10053600A898A998A0E09D99A1E0B3D3B0E0EA17E6
:10054600FB07A9F4A0E09C99A1E0B0D3B0E0EA17BC
:10055600FB0769F4A0E09B99A1E0ADD3B0E0EA17F0
:10056600FB0729F4A0E09A99A1E0B0D309F001C0F5
:100576007394A89AA99AEFE0B2D35394AECFDE9AB9
:10058600DE98A898A9989D9906C09C9904C09B9945
:1005960002C09A9B01C001C07394A89AA99AA29A14
:1005A600A39AA49AA59AAA98AB98AC98AD989D9947
:1005B60006C09C9904C09B9902C09A9B01C001C0C9
:1005C6007394AA9AAB9AAC9AAD9A9D9B06C09C9BD3
:1005D60004C09B9B02C09A9901C001C07394A29863
:1005E600A398A498D098E5E0E71511F4E1E0EDC0F2
:1005F600EBC01A930A9315E100E0E5E3D6D2EDE2EB
:10060600DAD2D898A89A5524E2E05E1608F063C0BC
:100616006AD30E2F003011F4DD9801C0DD9A6AD33B
:100626000E2F003011F4DC9801C0DC9A3AD30E2F5D
:10063600003011F4DA9801C0DA9A38D30E2F003060
:1006460011F4AD9801C0AD9A36D30E2F003011F4D7
:10065600AB9801C0AB9A35D311F4AA9801C0AA9AF7
:10066600D89AD898A4E6B0E0A1D3DD98DC98DA98B9
:10067600AD98AB98AA98A0E0CE99A1E034D3B0E0AB
:10068600EA17FB0711F5A0E0CB99A1E033D3B0E060
:10069600EA17FB07D1F4A0E0C999A1E002D3B0E0C4
:1006A600EA17FB0791F4A0E09E99A1E0FFD2B0E023
:1006B600EA17FB0751F4A0E09C99A1E0FCD2B0E058
:1006C600EA17FB0711F41BD309F001C07394EFE39B
:1006D60006D3539499CFE2E0E71511F4E1E075C033
:1006E60073C0DAD2E9E161D2E9E165D2D898A89A75
:1006F6005524E2E05E1608F062C0D3D20E2F003019
:1007060011F4DC9801C0DC9AD1D20E2F003011F41E
:10071600DB9801C0DB9ACFD20E2F003011F4AC98D3
:1007260001C0AC9ACED211F4AB9801C0AB9AD89A5C
:10073600AFD2DC98DB98AC98AB98A0E0CE99A1E05C
:10074600B0D2B0E0EA17FB0791F4A0E0C999A1E0A6
:10075600ADD2B0E0EA17FB0751F4A0E09E99A1E004
:10076600AAD2B0E0EA17FB0711F4C9D209F001C01A
:100776007394A0E0CD9BA1E094D2B0E0EA17FB070A
:10078600A9F4A0E0CA9BA1E091D2B0E0EA17FB076A
:1007960069F4A0E09D9BA1E08ED2B0E0EA17FB07CA
:1007A60029F4A0E09A9BA1E091D209F001C07394CC
:1007B600EFE01E27A8EEB3E0F9D253949ACFE4E017
:1007C600E71511F4E1E001C0E0E0099119910895FF
:1007D600E0E0E3BFE2BFECBFEFBDEEBDEDBDECBDBB
:1007E600E7BDE6BDEBBDEABDE9BDE8BDE2BDE5BDE1
:1007F600E4BDE3BDE9BFE5BFE4BFEAB9E0E8E8B9B7
:10080600E0E0E0BFE6B9EDB9E6BF66245524E6E0D0
:100816005E16E8F4E52DA0E9B2E075D20995E03060
:10082600A1F0E1E06E2EE4EAF0E0FA93EA93E52D1A
:10083600A4E8B2E068D266277727B3D284E052D123
:100846002696A8EEB3E0B2D202C05394E0CF66205B
:1008560051F4E3EBF0E0FA93EA9380E043D1229679
:10086600A8EEB3E0A3D2D1CFFFCFAA935D9BFECF74
:10087600E881ECB9219608956DD28D013C81A32FB4
:10088600F4DFD801ED91FD913196FE93EE9369D296
:1008960025960895BA93AA9326975AD210E0AC8566
:1008A600BD85E0E0F0E0ED93FC93EA89FB893196A3
:1008B600EA8BFB8B3197E4912E2FE03009F40BC1C4
:1008C600E12FE03031F4253211F411E001C023D2DA
:1008D60001C1E130A1F4253211F41DD2FAC012E0B3
:1008E60040E000E02D3211F401E0F4C02B3211F4A7
:1008F6004BE2F0C0203211F440E2ECC002C0E2301C
:1009060039F450E013E0203311F40068E3C003C06B
:10091600E33009F0DFC0203310F02A3308F007C0B7
:10092600AAE05A9F502DE22FE0535E0FD3C0E22F6C
:10093600E33639F4F7D1E889F989A481AA93F8D185
:10094600C8C0E33729F4EED1F9D1F3D01E2F07C082
:10095600E03749F4E7D1F2D1F8D01E2F08600260E3
:100966000F7730E03AC0E43611F0E93611F404604E
:1009760002C0E53731F4E4E5F0E0EE83FF8315E0ED
:100986000CC0E83511F4086003C0E83709F0A1C0CF
:10099600EEE5F0E0EE83FF8314E002FF15C0C2D15E
:1009A600A889B9891496ED91FD91EA87FB87AB85F5
:1009B600AA2322F4DBD1EA87FB874DE2403011F00F
:1009C6001F5F01C00B7F09C0ADD1A889B9891496F4
:1009D600ED91FC911197EA87FB8700FD10C0151772
:1009E60070F407FF08C002FF04C00B7F242F1150CC
:1009F60001C020E301C020E28ED15150F0CF312F4B
:100A060001FF16C0303099F003FF06C0EE81FF816A
:100A16002591EE83FF8305C0AE81BF812D91AE8304
:100A2600BF8379D1503009F051503150EBCF48C0D7
:100A360020E3EE81FF81B1D1E887F987EE81FF815E
:100A46003296EE83FF83E885F985AA85BB85AE17C6
:100A5600BF0750F02F5FA885B985EA85FB85EA1B9D
:100A6600FB0BEA87FB87EFCF2A3328F003FF02C090
:100A7600295F01C0295D04FD19C0213320F4A88532
:100A8600B985119709F409C0531710F000FF01C08A
:100A960011C020E207FF0AC020E3006102FF06C082
:100AA6000B7F4A9345D1503009F0515034D1503024
:100AB60009F051503150A885B985129708F0B8CF82
:100AC60000FF07C0503029F05150E0E2EA9330D1E0
:100AD600F9CF10E0EACEAC85BD85ED91FD913FD111
:100AE60064960895FF92F82E26971A930A93DE01CC
:100AF60014960024AF0DB01D8D01E0E0EC83ED836C
:100B0600EE83EF83DE0118960024AF0DB01DED9144
:100B1600FD91FA93EA931A930A93EFE3F4E0FA93BA
:100B2600EA93DE011896B6DE198108812896FF90B1
:100B36000895BA93AA93A991B991EE27FF276D91CB
:100B4600662311F03196FBCF0895BA93AA93AA278C
:100B5600BB27E991F9910590002011F01196FBCF82
:100B6600FD010895F7D015E500E030E00895E3E4CF
:100B7600E4BBE0E0E5BBE0E8E1BBE0E0E2BB772414
:100B86000895F0E0A1E0B0E0FED00895EA2FE795E1
:100B9600E0E0E79508950E2EA0E0CC99A1E0089537
:100BA600EA9FF001E20F0E2E0895EABBE0E0EBBBF0
:100BB600E7BBE8BB0895E4BBE0E0E5BBE0E8E1BBEA
:100BC600E0E0E2BB77240895A99AA998A8ECB0E0E2
:100BD600EDC0E02FE6950E2EA0E0C899A1E0D6CF95
:100BE600E0290E2FE32FE6950E2EA0E09E9BA1E0B6
:100BF600CDCFE12FA02FEA17E1E009F0EE270E2E68
:100C0600E12FA32FEA17E1E009F0EE27E029089586
:100C1600EFEF1E27A8ECB0E0C9C0E12FE078F0E0C6
:100C2600ABD0A8D0E0300895E12FE074F0E0A6D074
:100C3600A1D0E0300895E12FE072F0E0F595E79558
:100C460099D0E0300895E12FE071F0E093D0E030E4
:100C56000895E12FE870F0E08FD0E0300895E12F9D
:100C6600E470F0E08BD0E0300895E12FE278F0E018
:100C7600F595E795E0300895AE9AAE98A8ECB0E009
:100C860095C0E0290E2FAE9AAE98A4EFB1E08EC0C3
:100C9600D898A8EEB3E08AC01A930A9315E000E04C
:100CA6000895E12FE870F0E067D00895E12FE47031
:100CB600F0E064D00895E12FE270F0E0F595E79555
:100CC6000895E12FE1700E2F00300895E12FE170B5
:100CD600B0E0A7FDBFEFF0E0EA17FB0708951E2777
:100CE600A4E6B0E063C0E12FE072F0E0F595E79589
:100CF60041D00895E12FE071F0E03CD00895A0E0E6
:100D06009999A1E0E3CFF0E0EE0FFF1FAE0FBF1FF2
:100D1600ED91FD9108952A93AD85BE85EF85F889FD
:100D260009950895E889F9893497E88BF98B089530
:100D3600AD85BE85EF85F88909950895A889B98995
:100D46001496ED91FD91EE83FF83AE81BF810895E8
:100D56005A934A933A932A931A930A9308955D8174
:100D66004C813B812A81198108810895F195E1958D
:100D7600F0400895F595E795F595E795F595E7958E
:100D8600F595E7950895E894F7FF02C0EFDF6894BC
:100D9600EA23FB230EF4EADF08950590F491E02D93
:100DA60008957A936A93FA93EA930895109639F020
:100DB600A89580ED97E00197F1F71197C9F7089587
:00000001FF
