:040000000C942A0032
:100004000C9400000C9400000C9400000C9400006C
:100014000C9400000C9400000C9400000C9400005C
:100024000C9400000C9400000C9400000C9400004C
:100034000C9400000C9400000C9400000C9400003C
:100044000C9400000C9400000C9400000C9400002C
:10005400F894EE27ECBBF1E0FBBFEBBFE5BF8DE00E
:10006400A2E0BB27ED938A95E9F780E098E0A0E64B
:10007400ED930197E9F7EFE5EDBFE8E0EEBFC0E6E9
:10008400D2E00C94DB00E1D015E500E030E020E0A4
:10009400A998DE98A89A5524E2E05E1618F5012F77
:1000A4004424E8E04E1678F4E02FF0E0A1E0B0E05C
:1000B400E3D02E2F203011F4D99801C0D99A069597
:1000C4008CD04394EECF00E030E04424E8E04E16B8
:1000D40018F488D04394FACF9ED009F0ABD0B0D0B6
:1000E4005394DACFA4EFB1E0D1D05524E2E05E1608
:1000F40008F05CC0A898E12FE078F0E0B6D0B3D067
:10010400E03011F4DA9801C0DA9AE12FE074F0E0FB
:10011400AED0A9D0E03011F4DB9801C0DB9AE12F16
:10012400E072F0E0F595E7959ED0E03011F4DC98AC
:1001340001C0DC9AE12FE071F0E095D0E03011F4D9
:10014400DD9801C0DD9AE12FE870F0E08ED0E03058
:1001540011F4AA9801C0AA9AE12FE470F0E087D0C4
:10016400E03011F4AB9801C0AB9AE12FE278F0E0F3
:10017400F595E795E03011F4AC9801C0AC9A10FD08
:1001840002C0AD9801C0AD9AA99AA998A89A00E0B6
:1001940030E04424E8E04E1618F424D04394FACF17
:1001A4003AD009F047D04CD05394A0CF53D02496E2
:1001B4000895EEE7EABBE0E0EBBBE7BBE8BBEFE3A7
:1001C400E4BBE0E0E5BBE0E8E1BBE0E0E2BB5BDF31
:1001D400A8EEB3E05BD0FBCFFFCFA99AA998A8EC17
:1001E400B0E054C0E02FE6950E2EA0E0C899A1E03F
:1001F400EA2FE795E0E0E795E0290E2FE32FE69557
:100204000E2EA0E09E9BA1E0EA2FE795E0E0E795A3
:10021400E0293E2FE2CFE12FA02FEA17E1E009F019
:10022400EE270E2EE12FA32FEA17E1E009F0EE27C7
:10023400E0290895979AA4EFB1E028D097980895FB
:10024400EFEF1E27A8ECB0E021C03A932A931A934B
:100254000A9308953B812A81198108810895F195B3
:10026400E195F0400895F595E795F595E795F595B1
:10027400E795F595E7950895E894F7FF02C0EFDF59
:100284006894EA23FB230EF4EADF0895109639F00C
:10029400A89580ED97E00197F1F71197C9F70895B4
:00000001FF
